{
  "_format": "hh-sol-artifact-1",
  "contractName": "RealEstateToken",
  "sourceName": "contracts/RealEstateToken.sol",
  "abi": [
    {
      "inputs": [
        {
          "internalType": "string",
          "name": "name_",
          "type": "string"
        },
        {
          "internalType": "string",
          "name": "symbol_",
          "type": "string"
        },
        {
          "internalType": "uint256",
          "name": "initialSupply_",
          "type": "uint256"
        },
        {
          "internalType": "uint256",
          "name": "propertyId_",
          "type": "uint256"
        },
        {
          "internalType": "uint256",
          "name": "tokenPriceWei_",
          "type": "uint256"
        }
      ],
      "stateMutability": "nonpayable",
      "type": "constructor"
    },
    {
      "anonymous": false,
      "inputs": [
        {
          "indexed": true,
          "internalType": "address",
          "name": "owner",
          "type": "address"
        },
        {
          "indexed": true,
          "internalType": "address",
          "name": "spender",
          "type": "address"
        },
        {
          "indexed": false,
          "internalType": "uint256",
          "name": "value",
          "type": "uint256"
        }
      ],
      "name": "Approval",
      "type": "event"
    },
    {
      "anonymous": false,
      "inputs": [
        {
          "indexed": true,
          "internalType": "address",
          "name": "previousOwner",
          "type": "address"
        },
        {
          "indexed": true,
          "internalType": "address",
          "name": "newOwner",
          "type": "address"
        }
      ],
      "name": "OwnershipTransferred",
      "type": "event"
    },
    {
      "anonymous": false,
      "inputs": [
        {
          "indexed": true,
          "internalType": "address",
          "name": "buyer",
          "type": "address"
        },
        {
          "indexed": false,
          "internalType": "uint256",
          "name": "amount",
          "type": "uint256"
        },
        {
          "indexed": false,
          "internalType": "uint256",
          "name": "value",
          "type": "uint256"
        }
      ],
      "name": "TokensPurchased",
      "type": "event"
    },
    {
      "anonymous": false,
      "inputs": [
        {
          "indexed": true,
          "internalType": "address",
          "name": "from",
          "type": "address"
        },
        {
          "indexed": true,
          "internalType": "address",
          "name": "to",
          "type": "address"
        },
        {
          "indexed": false,
          "internalType": "uint256",
          "name": "value",
          "type": "uint256"
        }
      ],
      "name": "Transfer",
      "type": "event"
    },
    {
      "inputs": [
        {
          "internalType": "address",
          "name": "owner",
          "type": "address"
        },
        {
          "internalType": "address",
          "name": "spender",
          "type": "address"
        }
      ],
      "name": "allowance",
      "outputs": [
        {
          "internalType": "uint256",
          "name": "",
          "type": "uint256"
        }
      ],
      "stateMutability": "view",
      "type": "function"
    },
    {
      "inputs": [
        {
          "internalType": "address",
          "name": "spender",
          "type": "address"
        },
        {
          "internalType": "uint256",
          "name": "amount",
          "type": "uint256"
        }
      ],
      "name": "approve",
      "outputs": [
        {
          "internalType": "bool",
          "name": "",
          "type": "bool"
        }
      ],
      "stateMutability": "nonpayable",
      "type": "function"
    },
    {
      "inputs": [
        {
          "internalType": "address",
          "name": "account",
          "type": "address"
        }
      ],
      "name": "balanceOf",
      "outputs": [
        {
          "internalType": "uint256",
          "name": "",
          "type": "uint256"
        }
      ],
      "stateMutability": "view",
      "type": "function"
    },
    {
      "inputs": [
        {
          "internalType": "uint256",
          "name": "amount",
          "type": "uint256"
        }
      ],
      "name": "burn",
      "outputs": [],
      "stateMutability": "nonpayable",
      "type": "function"
    },
    {
      "inputs": [],
      "name": "buyTokens",
      "outputs": [],
      "stateMutability": "payable",
      "type": "function"
    },
    {
      "inputs": [],
      "name": "decimals",
      "outputs": [
        {
          "internalType": "uint8",
          "name": "",
          "type": "uint8"
        }
      ],
      "stateMutability": "view",
      "type": "function"
    },
    {
      "inputs": [
        {
          "internalType": "address",
          "name": "spender",
          "type": "address"
        },
        {
          "internalType": "uint256",
          "name": "subtractedValue",
          "type": "uint256"
        }
      ],
      "name": "decreaseAllowance",
      "outputs": [
        {
          "internalType": "bool",
          "name": "",
          "type": "bool"
        }
      ],
      "stateMutability": "nonpayable",
      "type": "function"
    },
    {
      "inputs": [
        {
          "internalType": "address",
          "name": "spender",
          "type": "address"
        },
        {
          "internalType": "uint256",
          "name": "addedValue",
          "type": "uint256"
        }
      ],
      "name": "increaseAllowance",
      "outputs": [
        {
          "internalType": "bool",
          "name": "",
          "type": "bool"
        }
      ],
      "stateMutability": "nonpayable",
      "type": "function"
    },
    {
      "inputs": [
        {
          "internalType": "address",
          "name": "to",
          "type": "address"
        },
        {
          "internalType": "uint256",
          "name": "amount",
          "type": "uint256"
        }
      ],
      "name": "mint",
      "outputs": [],
      "stateMutability": "nonpayable",
      "type": "function"
    },
    {
      "inputs": [],
      "name": "name",
      "outputs": [
        {
          "internalType": "string",
          "name": "",
          "type": "string"
        }
      ],
      "stateMutability": "view",
      "type": "function"
    },
    {
      "inputs": [],
      "name": "owner",
      "outputs": [
        {
          "internalType": "address",
          "name": "",
          "type": "address"
        }
      ],
      "stateMutability": "view",
      "type": "function"
    },
    {
      "inputs": [],
      "name": "propertyId",
      "outputs": [
        {
          "internalType": "uint256",
          "name": "",
          "type": "uint256"
        }
      ],
      "stateMutability": "view",
      "type": "function"
    },
    {
      "inputs": [],
      "name": "renounceOwnership",
      "outputs": [],
      "stateMutability": "nonpayable",
      "type": "function"
    },
    {
      "inputs": [
        {
          "internalType": "uint256",
          "name": "newPriceWei",
          "type": "uint256"
        }
      ],
      "name": "setTokenPrice",
      "outputs": [],
      "stateMutability": "nonpayable",
      "type": "function"
    },
    {
      "inputs": [],
      "name": "symbol",
      "outputs": [
        {
          "internalType": "string",
          "name": "",
          "type": "string"
        }
      ],
      "stateMutability": "view",
      "type": "function"
    },
    {
      "inputs": [],
      "name": "tokenPriceWei",
      "outputs": [
        {
          "internalType": "uint256",
          "name": "",
          "type": "uint256"
        }
      ],
      "stateMutability": "view",
      "type": "function"
    },
    {
      "inputs": [],
      "name": "totalSupply",
      "outputs": [
        {
          "internalType": "uint256",
          "name": "",
          "type": "uint256"
        }
      ],
      "stateMutability": "view",
      "type": "function"
    },
    {
      "inputs": [
        {
          "internalType": "address",
          "name": "to",
          "type": "address"
        },
        {
          "internalType": "uint256",
          "name": "amount",
          "type": "uint256"
        }
      ],
      "name": "transfer",
      "outputs": [
        {
          "internalType": "bool",
          "name": "",
          "type": "bool"
        }
      ],
      "stateMutability": "nonpayable",
      "type": "function"
    },
    {
      "inputs": [
        {
          "internalType": "address",
          "name": "from",
          "type": "address"
        },
        {
          "internalType": "address",
          "name": "to",
          "type": "address"
        },
        {
          "internalType": "uint256",
          "name": "amount",
          "type": "uint256"
        }
      ],
      "name": "transferFrom",
      "outputs": [
        {
          "internalType": "bool",
          "name": "",
          "type": "bool"
        }
      ],
      "stateMutability": "nonpayable",
      "type": "function"
    },
    {
      "inputs": [
        {
          "internalType": "address",
          "name": "newOwner",
          "type": "address"
        }
      ],
      "name": "transferOwnership",
      "outputs": [],
      "stateMutability": "nonpayable",
      "type": "function"
    },
    {
      "inputs": [],
      "name": "withdraw",
      "outputs": [],
      "stateMutability": "nonpayable",
      "type": "function"
    }
  ],
  "bytecode": "0x60806040523480156200001157600080fd5b5060405162002d8638038062002d868339818101604052810190620000379190620004f0565b848481600390816200004a9190620007f7565b5080600490816200005c9190620007f7565b5050506200007f62000073620000d460201b60201c565b620000dc60201b60201c565b8160068190555080600781905550620000c933620000a2620001a260201b60201c565b600a620000b0919062000a6e565b85620000bd919062000abf565b620001ab60201b60201c565b505050505062000bf6565b600033905090565b6000600560009054906101000a900473ffffffffffffffffffffffffffffffffffffffff16905081600560006101000a81548173ffffffffffffffffffffffffffffffffffffffff021916908373ffffffffffffffffffffffffffffffffffffffff1602179055508173ffffffffffffffffffffffffffffffffffffffff168173ffffffffffffffffffffffffffffffffffffffff167f8be0079c531659141344cd1fd0a4f28419497f9722a3daafe3b4186f6b6457e060405160405180910390a35050565b60006012905090565b600073ffffffffffffffffffffffffffffffffffffffff168273ffffffffffffffffffffffffffffffffffffffff16036200021d576040517f08c379a0000000000000000000000000000000000000000000000000000000008152600401620002149062000b6b565b60405180910390fd5b62000231600083836200031860201b60201c565b806002600082825462000245919062000b8d565b92505081905550806000808473ffffffffffffffffffffffffffffffffffffffff1673ffffffffffffffffffffffffffffffffffffffff168152602001908152602001600020600082825401925050819055508173ffffffffffffffffffffffffffffffffffffffff16600073ffffffffffffffffffffffffffffffffffffffff167fddf252ad1be2c89b69c2b068fc378daa952ba7f163c4a11628f55a4df523b3ef83604051620002f8919062000bd9565b60405180910390a362000314600083836200031d60201b60201c565b5050565b505050565b505050565b6000604051905090565b600080fd5b600080fd5b600080fd5b600080fd5b6000601f19601f8301169050919050565b7f4e487b7100000000000000000000000000000000000000000000000000000000600052604160045260246000fd5b6200038b8262000340565b810181811067ffffffffffffffff82111715620003ad57620003ac62000351565b5b80604052505050565b6000620003c262000322565b9050620003d0828262000380565b919050565b600067ffffffffffffffff821115620003f357620003f262000351565b5b620003fe8262000340565b9050602081019050919050565b60005b838110156200042b5780820151818401526020810190506200040e565b60008484015250505050565b60006200044e6200044884620003d5565b620003b6565b9050828152602081018484840111156200046d576200046c6200033b565b5b6200047a8482856200040b565b509392505050565b600082601f8301126200049a576200049962000336565b5b8151620004ac84826020860162000437565b91505092915050565b6000819050919050565b620004ca81620004b5565b8114620004d657600080fd5b50565b600081519050620004ea81620004bf565b92915050565b600080600080600060a086880312156200050f576200050e6200032c565b5b600086015167ffffffffffffffff81111562000530576200052f62000331565b5b6200053e8882890162000482565b955050602086015167ffffffffffffffff81111562000562576200056162000331565b5b620005708882890162000482565b94505060406200058388828901620004d9565b93505060606200059688828901620004d9565b9250506080620005a988828901620004d9565b9150509295509295909350565b600081519050919050565b7f4e487b7100000000000000000000000000000000000000000000000000000000600052602260045260246000fd5b600060028204905060018216806200060957607f821691505b6020821081036200061f576200061e620005c1565b5b50919050565b60008190508160005260206000209050919050565b60006020601f8301049050919050565b600082821b905092915050565b600060088302620006897fffffffffffffffffffffffffffffffffffffffffffffffffffffffffffffffff826200064a565b6200069586836200064a565b95508019841693508086168417925050509392505050565b6000819050919050565b6000620006d8620006d2620006cc84620004b5565b620006ad565b620004b5565b9050919050565b6000819050919050565b620006f483620006b7565b6200070c6200070382620006df565b84845462000657565b825550505050565b600090565b6200072362000714565b62000730818484620006e9565b505050565b5b8181101562000758576200074c60008262000719565b60018101905062000736565b5050565b601f821115620007a757620007718162000625565b6200077c846200063a565b810160208510156200078c578190505b620007a46200079b856200063a565b83018262000735565b50505b505050565b600082821c905092915050565b6000620007cc60001984600802620007ac565b1980831691505092915050565b6000620007e78383620007b9565b9150826002028217905092915050565b6200080282620005b6565b67ffffffffffffffff8111156200081e576200081d62000351565b5b6200082a8254620005f0565b620008378282856200075c565b600060209050601f8311600181146200086f57600084156200085a578287015190505b620008668582620007d9565b865550620008d6565b601f1984166200087f8662000625565b60005b82811015620008a95784890151825560018201915060208501945060208101905062000882565b86831015620008c95784890151620008c5601f891682620007b9565b8355505b6001600288020188555050505b505050505050565b7f4e487b7100000000000000000000000000000000000000000000000000000000600052601160045260246000fd5b60008160011c9050919050565b6000808291508390505b60018511156200096c57808604811115620009445762000943620008de565b5b6001851615620009545780820291505b808102905062000964856200090d565b945062000924565b94509492505050565b60008262000987576001905062000a5a565b8162000997576000905062000a5a565b8160018114620009b05760028114620009bb57620009f1565b600191505062000a5a565b60ff841115620009d057620009cf620008de565b5b8360020a915084821115620009ea57620009e9620008de565b5b5062000a5a565b5060208310610133831016604e8410600b841016171562000a2b5782820a90508381111562000a255762000a24620008de565b5b62000a5a565b62000a3a84848460016200091a565b9250905081840481111562000a545762000a53620008de565b5b81810290505b9392505050565b600060ff82169050919050565b600062000a7b82620004b5565b915062000a888362000a61565b925062000ab77fffffffffffffffffffffffffffffffffffffffffffffffffffffffffffffffff848462000975565b905092915050565b600062000acc82620004b5565b915062000ad983620004b5565b925082820262000ae981620004b5565b9150828204841483151762000b035762000b02620008de565b5b5092915050565b600082825260208201905092915050565b7f45524332303a206d696e7420746f20746865207a65726f206164647265737300600082015250565b600062000b53601f8362000b0a565b915062000b608262000b1b565b602082019050919050565b6000602082019050818103600083015262000b868162000b44565b9050919050565b600062000b9a82620004b5565b915062000ba783620004b5565b925082820190508082111562000bc25762000bc1620008de565b5b92915050565b62000bd381620004b5565b82525050565b600060208201905062000bf0600083018462000bc8565b92915050565b6121808062000c066000396000f3fe60806040526004361061012a5760003560e01c80636a61e5fc116100ab578063a457c2d71161006f578063a457c2d7146103ce578063a9059cbb1461040b578063d0febe4c14610448578063dd62ed3e14610452578063ee7a3b8e1461048f578063f2fde38b146104ba5761012a565b80636a61e5fc146102fb57806370a0823114610324578063715018a6146103615780638da5cb5b1461037857806395d89b41146103a35761012a565b8063313ce567116100f2578063313ce5671461022a57806339509351146102555780633ccfd60b1461029257806340c10f19146102a957806342966c68146102d25761012a565b806305d0f15b1461012f57806306fdde031461015a578063095ea7b31461018557806318160ddd146101c257806323b872dd146101ed575b600080fd5b34801561013b57600080fd5b506101446104e3565b60405161015191906113e0565b60405180910390f35b34801561016657600080fd5b5061016f6104e9565b60405161017c919061148b565b60405180910390f35b34801561019157600080fd5b506101ac60048036038101906101a7919061153c565b61057b565b6040516101b99190611597565b60405180910390f35b3480156101ce57600080fd5b506101d761059e565b6040516101e491906113e0565b60405180910390f35b3480156101f957600080fd5b50610214600480360381019061020f91906115b2565b6105a8565b6040516102219190611597565b60405180910390f35b34801561023657600080fd5b5061023f6105d7565b60405161024c9190611621565b60405180910390f35b34801561026157600080fd5b5061027c6004803603810190610277919061153c565b6105e0565b6040516102899190611597565b60405180910390f35b34801561029e57600080fd5b506102a7610617565b005b3480156102b557600080fd5b506102d060048036038101906102cb919061153c565b61066f565b005b3480156102de57600080fd5b506102f960048036038101906102f4919061163c565b610685565b005b34801561030757600080fd5b50610322600480360381019061031d919061163c565b610692565b005b34801561033057600080fd5b5061034b60048036038101906103469190611669565b6106a4565b60405161035891906113e0565b60405180910390f35b34801561036d57600080fd5b506103766106ec565b005b34801561038457600080fd5b5061038d610700565b60405161039a91906116a5565b60405180910390f35b3480156103af57600080fd5b506103b861072a565b6040516103c5919061148b565b60405180910390f35b3480156103da57600080fd5b506103f560048036038101906103f0919061153c565b6107bc565b6040516104029190611597565b60405180910390f35b34801561041757600080fd5b50610432600480360381019061042d919061153c565b610833565b60405161043f9190611597565b60405180910390f35b610450610856565b005b34801561045e57600080fd5b50610479600480360381019061047491906116c0565b610973565b60405161048691906113e0565b60405180910390f35b34801561049b57600080fd5b506104a46109fa565b6040516104b191906113e0565b60405180910390f35b3480156104c657600080fd5b506104e160048036038101906104dc9190611669565b610a00565b005b60075481565b6060600380546104f89061172f565b80601f01602080910402602001604051908101604052809291908181526020018280546105249061172f565b80156105715780601f1061054657610100808354040283529160200191610571565b820191906000526020600020905b81548152906001019060200180831161055457829003601f168201915b5050505050905090565b600080610586610a83565b9050610593818585610a8b565b600191505092915050565b6000600254905090565b6000806105b3610a83565b90506105c0858285610c54565b6105cb858585610ce0565b60019150509392505050565b60006012905090565b6000806105eb610a83565b905061060c8185856105fd8589610973565b610607919061178f565b610a8b565b600191505092915050565b61061f610f56565b610627610700565b73ffffffffffffffffffffffffffffffffffffffff166108fc479081150290604051600060405180830381858888f1935050505015801561066c573d6000803e3d6000fd5b50565b610677610f56565b6106818282610fd4565b5050565b61068f338261112a565b50565b61069a610f56565b8060078190555050565b60008060008373ffffffffffffffffffffffffffffffffffffffff1673ffffffffffffffffffffffffffffffffffffffff168152602001908152602001600020549050919050565b6106f4610f56565b6106fe60006112f7565b565b6000600560009054906101000a900473ffffffffffffffffffffffffffffffffffffffff16905090565b6060600480546107399061172f565b80601f01602080910402602001604051908101604052809291908181526020018280546107659061172f565b80156107b25780601f10610787576101008083540402835291602001916107b2565b820191906000526020600020905b81548152906001019060200180831161079557829003601f168201915b5050505050905090565b6000806107c7610a83565b905060006107d58286610973565b90508381101561081a576040517f08c379a000000000000000000000000000000000000000000000000000000000815260040161081190611835565b60405180910390fd5b6108278286868403610a8b565b60019250505092915050565b60008061083e610a83565b905061084b818585610ce0565b600191505092915050565b60006007541161089b576040517f08c379a0000000000000000000000000000000000000000000000000000000008152600401610892906118a1565b60405180910390fd5b6000600754346108ab91906118f0565b9050600081116108f0576040517f08c379a00000000000000000000000000000000000000000000000000000000081526004016108e79061196d565b60405180910390fd5b6109206108fb610700565b336109046105d7565b600a6109109190611ac0565b8461091b9190611b0b565b610ce0565b3373ffffffffffffffffffffffffffffffffffffffff167f8fafebcaf9d154343dad25669bfa277f4fbacd7ac6b0c4fed522580e040a0f338234604051610968929190611b4d565b60405180910390a250565b6000600160008473ffffffffffffffffffffffffffffffffffffffff1673ffffffffffffffffffffffffffffffffffffffff16815260200190815260200160002060008373ffffffffffffffffffffffffffffffffffffffff1673ffffffffffffffffffffffffffffffffffffffff16815260200190815260200160002054905092915050565b60065481565b610a08610f56565b600073ffffffffffffffffffffffffffffffffffffffff168173ffffffffffffffffffffffffffffffffffffffff1603610a77576040517f08c379a0000000000000000000000000000000000000000000000000000000008152600401610a6e90611be8565b60405180910390fd5b610a80816112f7565b50565b600033905090565b600073ffffffffffffffffffffffffffffffffffffffff168373ffffffffffffffffffffffffffffffffffffffff1603610afa576040517f08c379a0000000000000000000000000000000000000000000000000000000008152600401610af190611c7a565b60405180910390fd5b600073ffffffffffffffffffffffffffffffffffffffff168273ffffffffffffffffffffffffffffffffffffffff1603610b69576040517f08c379a0000000000000000000000000000000000000000000000000000000008152600401610b6090611d0c565b60405180910390fd5b80600160008573ffffffffffffffffffffffffffffffffffffffff1673ffffffffffffffffffffffffffffffffffffffff16815260200190815260200160002060008473ffffffffffffffffffffffffffffffffffffffff1673ffffffffffffffffffffffffffffffffffffffff168152602001908152602001600020819055508173ffffffffffffffffffffffffffffffffffffffff168373ffffffffffffffffffffffffffffffffffffffff167f8c5be1e5ebec7d5bd14f71427d1e84f3dd0314c0f7b2291e5b200ac8c7c3b92583604051610c4791906113e0565b60405180910390a3505050565b6000610c608484610973565b90507fffffffffffffffffffffffffffffffffffffffffffffffffffffffffffffffff8114610cda5781811015610ccc576040517f08c379a0000000000000000000000000000000000000000000000000000000008152600401610cc390611d78565b60405180910390fd5b610cd98484848403610a8b565b5b50505050565b600073ffffffffffffffffffffffffffffffffffffffff168373ffffffffffffffffffffffffffffffffffffffff1603610d4f576040517f08c379a0000000000000000000000000000000000000000000000000000000008152600401610d4690611e0a565b60405180910390fd5b600073ffffffffffffffffffffffffffffffffffffffff168273ffffffffffffffffffffffffffffffffffffffff1603610dbe576040517f08c379a0000000000000000000000000000000000000000000000000000000008152600401610db590611e9c565b60405180910390fd5b610dc98383836113bd565b60008060008573ffffffffffffffffffffffffffffffffffffffff1673ffffffffffffffffffffffffffffffffffffffff16815260200190815260200160002054905081811015610e4f576040517f08c379a0000000000000000000000000000000000000000000000000000000008152600401610e4690611f2e565b60405180910390fd5b8181036000808673ffffffffffffffffffffffffffffffffffffffff1673ffffffffffffffffffffffffffffffffffffffff16815260200190815260200160002081905550816000808573ffffffffffffffffffffffffffffffffffffffff1673ffffffffffffffffffffffffffffffffffffffff168152602001908152602001600020600082825401925050819055508273ffffffffffffffffffffffffffffffffffffffff168473ffffffffffffffffffffffffffffffffffffffff167fddf252ad1be2c89b69c2b068fc378daa952ba7f163c4a11628f55a4df523b3ef84604051610f3d91906113e0565b60405180910390a3610f508484846113c2565b50505050565b610f5e610a83565b73ffffffffffffffffffffffffffffffffffffffff16610f7c610700565b73ffffffffffffffffffffffffffffffffffffffff1614610fd2576040517f08c379a0000000000000000000000000000000000000000000000000000000008152600401610fc990611f9a565b60405180910390fd5b565b600073ffffffffffffffffffffffffffffffffffffffff168273ffffffffffffffffffffffffffffffffffffffff1603611043576040517f08c379a000000000000000000000000000000000000000000000000000000000815260040161103a90612006565b60405180910390fd5b61104f600083836113bd565b8060026000828254611061919061178f565b92505081905550806000808473ffffffffffffffffffffffffffffffffffffffff1673ffffffffffffffffffffffffffffffffffffffff168152602001908152602001600020600082825401925050819055508173ffffffffffffffffffffffffffffffffffffffff16600073ffffffffffffffffffffffffffffffffffffffff167fddf252ad1be2c89b69c2b068fc378daa952ba7f163c4a11628f55a4df523b3ef8360405161111291906113e0565b60405180910390a3611126600083836113c2565b5050565b600073ffffffffffffffffffffffffffffffffffffffff168273ffffffffffffffffffffffffffffffffffffffff1603611199576040517f08c379a000000000000000000000000000000000000000000000000000000000815260040161119090612098565b60405180910390fd5b6111a5826000836113bd565b60008060008473ffffffffffffffffffffffffffffffffffffffff1673ffffffffffffffffffffffffffffffffffffffff1681526020019081526020016000205490508181101561122b576040517f08c379a00000000000000000000000000000000000000000000000000000000081526004016112229061212a565b60405180910390fd5b8181036000808573ffffffffffffffffffffffffffffffffffffffff1673ffffffffffffffffffffffffffffffffffffffff1681526020019081526020016000208190555081600260008282540392505081905550600073ffffffffffffffffffffffffffffffffffffffff168373ffffffffffffffffffffffffffffffffffffffff167fddf252ad1be2c89b69c2b068fc378daa952ba7f163c4a11628f55a4df523b3ef846040516112de91906113e0565b60405180910390a36112f2836000846113c2565b505050565b6000600560009054906101000a900473ffffffffffffffffffffffffffffffffffffffff16905081600560006101000a81548173ffffffffffffffffffffffffffffffffffffffff021916908373ffffffffffffffffffffffffffffffffffffffff1602179055508173ffffffffffffffffffffffffffffffffffffffff168173ffffffffffffffffffffffffffffffffffffffff167f8be0079c531659141344cd1fd0a4f28419497f9722a3daafe3b4186f6b6457e060405160405180910390a35050565b505050565b505050565b6000819050919050565b6113da816113c7565b82525050565b60006020820190506113f560008301846113d1565b92915050565b600081519050919050565b600082825260208201905092915050565b60005b8381101561143557808201518184015260208101905061141a565b60008484015250505050565b6000601f19601f8301169050919050565b600061145d826113fb565b6114678185611406565b9350611477818560208601611417565b61148081611441565b840191505092915050565b600060208201905081810360008301526114a58184611452565b905092915050565b600080fd5b600073ffffffffffffffffffffffffffffffffffffffff82169050919050565b60006114dd826114b2565b9050919050565b6114ed816114d2565b81146114f857600080fd5b50565b60008135905061150a816114e4565b92915050565b611519816113c7565b811461152457600080fd5b50565b60008135905061153681611510565b92915050565b60008060408385031215611553576115526114ad565b5b6000611561858286016114fb565b925050602061157285828601611527565b9150509250929050565b60008115159050919050565b6115918161157c565b82525050565b60006020820190506115ac6000830184611588565b92915050565b6000806000606084860312156115cb576115ca6114ad565b5b60006115d9868287016114fb565b93505060206115ea868287016114fb565b92505060406115fb86828701611527565b9150509250925092565b600060ff82169050919050565b61161b81611605565b82525050565b60006020820190506116366000830184611612565b92915050565b600060208284031215611652576116516114ad565b5b600061166084828501611527565b91505092915050565b60006020828403121561167f5761167e6114ad565b5b600061168d848285016114fb565b91505092915050565b61169f816114d2565b82525050565b60006020820190506116ba6000830184611696565b92915050565b600080604083850312156116d7576116d66114ad565b5b60006116e5858286016114fb565b92505060206116f6858286016114fb565b9150509250929050565b7f4e487b7100000000000000000000000000000000000000000000000000000000600052602260045260246000fd5b6000600282049050600182168061174757607f821691505b60208210810361175a57611759611700565b5b50919050565b7f4e487b7100000000000000000000000000000000000000000000000000000000600052601160045260246000fd5b600061179a826113c7565b91506117a5836113c7565b92508282019050808211156117bd576117bc611760565b5b92915050565b7f45524332303a2064656372656173656420616c6c6f77616e63652062656c6f7760008201527f207a65726f000000000000000000000000000000000000000000000000000000602082015250565b600061181f602583611406565b915061182a826117c3565b604082019050919050565b6000602082019050818103600083015261184e81611812565b9050919050565b7f546f6b656e207072696365206e6f742073657400000000000000000000000000600082015250565b600061188b601383611406565b915061189682611855565b602082019050919050565b600060208201905081810360008301526118ba8161187e565b9050919050565b7f4e487b7100000000000000000000000000000000000000000000000000000000600052601260045260246000fd5b60006118fb826113c7565b9150611906836113c7565b925082611916576119156118c1565b5b828204905092915050565b7f53656e64206d6f72652045544800000000000000000000000000000000000000600082015250565b6000611957600d83611406565b915061196282611921565b602082019050919050565b600060208201905081810360008301526119868161194a565b9050919050565b60008160011c9050919050565b6000808291508390505b60018511156119e4578086048111156119c0576119bf611760565b5b60018516156119cf5780820291505b80810290506119dd8561198d565b94506119a4565b94509492505050565b6000826119fd5760019050611ab9565b81611a0b5760009050611ab9565b8160018114611a215760028114611a2b57611a5a565b6001915050611ab9565b60ff841115611a3d57611a3c611760565b5b8360020a915084821115611a5457611a53611760565b5b50611ab9565b5060208310610133831016604e8410600b8410161715611a8f5782820a905083811115611a8a57611a89611760565b5b611ab9565b611a9c848484600161199a565b92509050818404811115611ab357611ab2611760565b5b81810290505b9392505050565b6000611acb826113c7565b9150611ad683611605565b9250611b037fffffffffffffffffffffffffffffffffffffffffffffffffffffffffffffffff84846119ed565b905092915050565b6000611b16826113c7565b9150611b21836113c7565b9250828202611b2f816113c7565b91508282048414831517611b4657611b45611760565b5b5092915050565b6000604082019050611b6260008301856113d1565b611b6f60208301846113d1565b9392505050565b7f4f776e61626c653a206e6577206f776e657220697320746865207a65726f206160008201527f6464726573730000000000000000000000000000000000000000000000000000602082015250565b6000611bd2602683611406565b9150611bdd82611b76565b604082019050919050565b60006020820190508181036000830152611c0181611bc5565b9050919050565b7f45524332303a20617070726f76652066726f6d20746865207a65726f2061646460008201527f7265737300000000000000000000000000000000000000000000000000000000602082015250565b6000611c64602483611406565b9150611c6f82611c08565b604082019050919050565b60006020820190508181036000830152611c9381611c57565b9050919050565b7f45524332303a20617070726f766520746f20746865207a65726f20616464726560008201527f7373000000000000000000000000000000000000000000000000000000000000602082015250565b6000611cf6602283611406565b9150611d0182611c9a565b604082019050919050565b60006020820190508181036000830152611d2581611ce9565b9050919050565b7f45524332303a20696e73756666696369656e7420616c6c6f77616e6365000000600082015250565b6000611d62601d83611406565b9150611d6d82611d2c565b602082019050919050565b60006020820190508181036000830152611d9181611d55565b9050919050565b7f45524332303a207472616e736665722066726f6d20746865207a65726f20616460008201527f6472657373000000000000000000000000000000000000000000000000000000602082015250565b6000611df4602583611406565b9150611dff82611d98565b604082019050919050565b60006020820190508181036000830152611e2381611de7565b9050919050565b7f45524332303a207472616e7366657220746f20746865207a65726f206164647260008201527f6573730000000000000000000000000000000000000000000000000000000000602082015250565b6000611e86602383611406565b9150611e9182611e2a565b604082019050919050565b60006020820190508181036000830152611eb581611e79565b9050919050565b7f45524332303a207472616e7366657220616d6f756e742065786365656473206260008201527f616c616e63650000000000000000000000000000000000000000000000000000602082015250565b6000611f18602683611406565b9150611f2382611ebc565b604082019050919050565b60006020820190508181036000830152611f4781611f0b565b9050919050565b7f4f776e61626c653a2063616c6c6572206973206e6f7420746865206f776e6572600082015250565b6000611f84602083611406565b9150611f8f82611f4e565b602082019050919050565b60006020820190508181036000830152611fb381611f77565b9050919050565b7f45524332303a206d696e7420746f20746865207a65726f206164647265737300600082015250565b6000611ff0601f83611406565b9150611ffb82611fba565b602082019050919050565b6000602082019050818103600083015261201f81611fe3565b9050919050565b7f45524332303a206275726e2066726f6d20746865207a65726f2061646472657360008201527f7300000000000000000000000000000000000000000000000000000000000000602082015250565b6000612082602183611406565b915061208d82612026565b604082019050919050565b600060208201905081810360008301526120b181612075565b9050919050565b7f45524332303a206275726e20616d6f756e7420657863656564732062616c616e60008201527f6365000000000000000000000000000000000000000000000000000000000000602082015250565b6000612114602283611406565b915061211f826120b8565b604082019050919050565b6000602082019050818103600083015261214381612107565b905091905056fea2646970667358221220d75b71da117ccd7b8944914a1221c06fba44d9e64660d7a400697b07c4abcaaa64736f6c63430008140033",
  "linkReferences": {},
  "deployedLinkReferences": {}
}